:060000000A128A11122809
:10000800FE00030EF4000408F5000A08F600831247
:1000180003137F08F7000A128A11CD2D0A128A11DC
:100028001528F801F901FA01FB01FC01FD01831310
:10003800453084005D300A128A11922683010A1223
:100048008A1126280A128A1133260A128A110330C5
:1000580083120313BF000830BE007830BD00BD0B0B
:100068003328BE0B3328BF0B33288312031306161D
:10007800003083120313A0000030A1000A128A1175
:1000880001260A128A11831203132008CD002108C1
:10009800CE00CF01D0015008A3004F08A2004E089F
:1000A800A1004D08A0000030A7000030A6001330C2
:1000B800A5008830A4000A128A1116250A128A118E
:1000C800831203132008BD002108BE002208BF00C8
:1000D8002308C0000A300310C00CBF0CBE0CBD0CB6
:1000E800FF3E031D6F284008D0003F08CF003E08A0
:1000F800CE003D08CD000030B0000030AF00003029
:10010800AE006330AD005008A3004F08A2004E08AF
:10011800A1004D08A0000030A7000030A600033061
:10012800A500E830A4000A128A1116250A128A11BD
:10013800831203132308B4002208B3002108B20075
:100148002008B1000A128A115B240A128A1183124C
:1001580003133008D0002F08CF002E08CE002D083A
:10016800CD000130A0000030A1000A128A1101263A
:100178000A128A11831203132008D1002108D20021
:10018800D301D4015408A3005308A2005208A100C7
:100198005108A0000030A7000030A6001330A500C9
:1001A8008830A4000A128A1116250A128A118312AD
:1001B80003132008BD002108BE002208BF00230841
:1001C800C0000A300310C00CBF0CBE0CBD0CFF3EB3
:1001D800031DE6284008D4003F08D3003E08D2009B
:1001E8003D08D1000030B0000030AF000030AE0054
:1001F8006330AD005408A3005308A2005208A100C0
:100208005108A0000030A7000030A6000330A50068
:10021800E830A4000A128A1116250A128A118312DC
:1002280003132308B4002208B3002108B2002008F1
:10023800B1000A128A115B240A128A11831203136D
:100248003008D4002F08D3002E08D2002D08D10082
:100258000230A0000030A1000A128A1101260A12F9
:100268008A11831203132008D5002108D600D7016C
:10027800D8015808A3005708A2005608A10055083D
:10028800A0000030A7000030A6001330A500883079
:10029800A4000A128A1116250A128A11831203135E
:1002A8002008BD002108BE002208BF002308C000A6
:1002B8000A300310C00CBF0CBE0CBD0CFF3E031D62
:1002C8005D294008D8003F08D7003E08D6003D0801
:1002D800D5000030B0000030AF000030AE00633011
:1002E800AD005808A3005708A2005608A1005508F9
:1002F800A0000030A7000030A6000330A500E830B9
:10030800A4000A128A1116250A128A1183120313ED
:100318002308B4002208B3002108B2002008B10065
:100328000A128A115B240A128A11831203133008F5
:10033800D8002F08D7002E08D6002D08D500033086
:10034800A0000030A1000A128A1101260A128A119F
:10035800831203132008C5002108C600C701C8017D
:100368004808A3004708A2004608A1004508A000C5
:100378000030A7000030A6001330A5008830A40084
:100388000A128A1116250A128A11831203132308E6
:10039800C8002208C7002108C6002008C500003090
:1003A800B0000030AF000130AE00F430AD004808B6
:1003B800A3004708A2004608A1004508A000003095
:1003C800A7000F30A6004230A5004030A4000A1252
:1003D8008A1116250A128A11831203132308B400FE
:1003E8002208B3002108B2002008B1000A128A11BD
:1003F8005B240A128A11831203133008C4002F08E1
:10040800C3002E08C2002D08C1000030B000003023
:10041800AF000030AE003C30AD004408B4004308E3
:10042800B3004208B2004108B1000A128A115B24E5
:100438000A128A11831203133008C8002F08C70054
:100448002E08C6002D08C5000630BD00BD0B2A2A9F
:10045800000074300A128A119A260A128A1183122D
:1004680003135A08B001B0075908AF01AF070A12C1
:100478008A11AD220A128A1161300A128A119A264B
:100488000A128A11831203134E08B001B0074D08EF
:10049800AF01AF070A128A11AD220A128A1162301F
:1004A8000A128A119A260A128A11831203134E0815
:1004B800B001B0074D08AF01AF070A128A11AD228B
:1004C8000A128A1163300A128A119A260A128A11AC
:1004D800831203134E08B001B0074D08AF01AF07F0
:1004E8000A128A11AD220A128A1164300A128A117C
:1004F8009A260A128A11831203134608B001B0071C
:100508004508AF01AF070A128A11AD220A128A11F3
:1005180065300A128A119A260A128A118312031365
:100528004A08B001B0074908AF01AF070A128A119B
:10053800AD220A128A110D300A128A119A260A125D
:100548008A11063083120313BD00BD0BA92A0000CF
:100558003C28003083120313A3000130A200863028
:10056800A100A030A0002F08A4003008A500A60113
:10057800A7010A128A11CC230A128A1183120313C3
:100588002108BC01BC072008BB01BB073C08A2012D
:10059800A2073B08A101A1070A128A11BB240A126B
:1005A8008A110A3083120313A8000030A900103002
:1005B800A0002730A1003008A301A3072F08A2013B
:1005C800A2070A128A1157250A128A1183120313E5
:1005D8002108AB01AB072008AA01AA070A128A1151
:1005E80097250A128A11831203132908BA01BA0738
:1005F8002808B901B9073A08A201A2073908A101D8
:10060800A1070A128A11BB240A128A110A3083121E
:100618000313A8000030A900E830A0000330A100AF
:100628003008A301A3072F08A201A2070A128A1102
:1006380057250A128A11831203132108AB01AB074D
:100648002008AA01AA070A128A1197250A128A11F4
:10065800831203132908B801B8072808B701B70798
:100668003808A201A2073708A101A1070A128A11B6
:10067800BB240A128A110A3083120313A80000301F
:10068800A9006430A0000030A1003008A301A3072E
:100698002F08A201A2070A128A1157250A128A11E5
:1006A800831203132108AB01AB072008AA01AA078C
:1006B8000A128A1197250A128A118312031329082C
:1006C800B601B6072808B501B5073608A201A20782
:1006D8003508A101A1070A128A11BB240A128A113E
:1006E8000A3083120313A8000030A9000A30A000C2
:1006F8000030A1003008A301A3072F08A201A20718
:100708000A128A1157250A128A1183120313210823
:10071800AB01AB072008AA01AA070A128A1197257C
:100728000A128A11831203132908B401B40728088E
:10073800B301B3073408A201A2073308A101A10736
:100748000A128A11BB240A128A110A30831203136F
:10075800A8000030A9003008AB01AB072F08AA0198
:10076800AA070A128A1197250A128A1183120313FB
:100778002908B201B2072808B101B1073208A2015D
:10078800A2073108A101A1070A128A11BB24080097
:1007980083120313AA01A31FDE2BA009A109A20932
:1007A800A309A00A0319A10A0319A20A0319A30A93
:1007B800AA01AA0AA71FEF2BA409A509A609A70938
:1007C800A40A0319A50A0319A60A0319A70A0130DE
:1007D800A8002808AA060030AE000030AD0000309E
:1007E800AC000030AB0023082204210420040319C4
:1007F800442CA901A90AA31B0F2C0130A80003103F
:10080800A00DA10DA20DA30DA80B032C0130A8006B
:100818002808A907FF2B0130A8000310AB0DAC0D69
:10082800AD0DAE0DA80B112C23082702031D262C95
:1008380022082602031D262C21082502031D262C2A
:1008480020082402031C372C2008A4022108031CBA
:10085800210FA5022208031C220FA6022308031C4D
:10086800230FA7022B1401300310A30CA20CA10C18
:10087800A00CFF3E031D382C0130A902031D0F2CCC
:100888002A080319522CAB09AC09AD09AE09AB0A09
:100898000319AC0A0319AD0A0319AE0A2E08A300FE
:1008A8002D08A2002C08A1002B08A0000800003089
:1008B80083120313B9000030B8000030B7000030CD
:1008C800B60030082F042E042D040319B22CBA01E7
:1008D800BA0AB01B7D2C0130B5000310AD0DAE0D6A
:1008E800AF0DB00DB50B712C0130B5003508BA0746
:1008F8006D2C0130B5000310B60DB70DB80DB90D4C
:10090800B50B7F2C30083402031D942C2F083302BA
:10091800031D942C2E083202031D942C2D0831023D
:10092800031CA52C2D08B1022E08031C2E0FB202A1
:100938002F08031C2F0FB3023008031C300FB4021A
:10094800361401300310B00CAF0CAE0CAD0CFF3EEA
:10095800031DA62C0130BA02031D7D2C3908B000F6
:100968003808AF003708AE003608AD000800EE2C96
:1009780030300A128A119A26080031300A128A1178
:100988009A26080032300A128A119A260800333053
:100998000A128A119A26080034300A128A119A26F5
:1009A800080035300A128A119A26080036300A12D1
:1009B8008A119A26080037300A128A119A260800E6
:1009C80038300A128A119A26080039300A128A1118
:1009D8009A260800831203132208003A0319F52CFB
:1009E800152D2108003A0319BC2C013A0319C12C12
:1009F800033A0319C62C013A0319CB2C073A0319F9
:100A0800D02C013A0319D52C033A0319DA2C013AF0
:100A18000319DF2C0F3A0319E42C013A0319E92CC6
:100A2800152D0800003083120313AC000030AB0012
:100A38000030AA000030A900201C362D2408A90780
:100A4800250803110318013E031DAA0726080311F0
:100A58000318013E031DAB07270803110318013EC5
:100A6800031DAC070130A8000310A40DA50DA60DA9
:100A7800A70DA80B382D01300310A30CA20CA10C54
:100A8800A00CFF3E031D402D23082204210420044E
:100A9800031D202D2C08A3002B08A2002A08A10062
:100AA8002908A000080083120313A501A601210844
:100AB80020040319902DA701A70AA11B6F2D01304F
:100AC8000310A00DA10DFF3E031D642D0130A400ED
:100AD8002408A707612D01300310A50DA60DFF3EC0
:100AE800031D702D21082302031D7C2D20082202DE
:100AF800031C852D2008A2022108031CA303A302BE
:100B0800251401300310A10CA00CFF3E031D862DF7
:100B18000130A702031D6F2D2608A101A107250892
:100B2800A001A00708008312031329082804031949
:100B3800C62DAD01AD0AA91BAD2D01300310A80DBE
:100B4800A90DFF3E031DA22D0130AC002C08AD07F6
:100B58009F2D29082B02031DB32D28082A02031CE8
:100B6800BB2D2808AA022908031CAB03AB020130DD
:100B78000310A90CA80CFF3E031DBC2D0130AD02CB
:100B8800031DAD2D2B08A901A9072A08A801A8074C
:100B980008000C1CF62D0C10FC308F0017308E004E
:100BA8000130F0000030F1000030F2000030F300B6
:100BB8005908F0075A0803185A0FE32DE42DF107D6
:100BC8005B0803185B0FE92DEA2DF2075C08031890
:100BD8005C0AF3077308DC007208DB007108DA00AE
:100BE8007008D9007708FF0076088A007508840025
:100BF800740E8300FE0E7E0E0900102E1F129F1128
:100C08000A2E1F129F110E2E1F129F151F11252E1F
:100C18001F129F151F15252E831203132108003A52
:100C28000319172E252E2008003A0319022E013A1F
:100C38000319052E033A0319082E013A03190C2E3D
:100C4800252E9F149F18262E1E08A101A107831682
:100C580003131E0883120313A001A00708007D30A8
:100C6800831603138F00C0308B000F3083160317D1
:100C7800880089010F308316031385000130860030
:100C8800C030870083120313850186018701113064
:100C98009000831603130C148B170B170A128A1172
:100CA8005B260A128A110A128A11792608000F3067
:100CB8008316031385000F308316031788008901F4
:100CC800831603130C13831203130C1383160313D5
:100CD8001F129F12831203139F131F1383160313EC
:100CE8009F17831203131F14080083160313071793
:100CF80087170C309900831603178711831603137F
:100D080098161813831203131813181698178316B6
:100D18000313181218150C128C16080064008001B1
:100D2800840A0406031900340406932E831203135D
:0C0D3800A0000C1E9D2E20089900080051
:00000001FF
